:100000000C9473030C949B030C949B030C949B0320
:100010000C949B030C949B030C949B030C949B03E8
:100020000C949B030C949B030C949B080C940A095E
:100030000C949B030C949B030C949B030C949B03C8
:100040000C949B030C949B030C949B030C949B03B8
:100050000C949B030C949B030C949B030C943C0BFF
:100060000C949B030C949B030C949B030C949B0398
:100070000C949B030C949B030C949B030C949B0388
:100080000C94860B0C949B030C949B030C949B0385
:100090000C949B030C949B030C949B030C949B0368
:1000A0000C949B030C949B030C949B030000000096
:1000B000003E5B4F5B3E3E6B4F6B3E1C3E7C3E1CEE
:1000C000183C7E3C181C577D571C1C5E7F5E1C0034
:1000D000183C1800FFE7C3E7FF0018241800FFE7EB
:1000E000DBE7FF30483A060E2629792926407F05AE
:1000F0000507407F05253F5A3CE73C5A7F3E1C1CC4
:1001000008081C1C3E7F14227F22145F5F005F5F83
:1001100006097F017F006689956A6060606060946F
:10012000A2FFA29408047E040810207E2010080874
:100130002A1C08081C2A08081E101010100C1E0C7F
:100140001E0C30383E3830060E3E0E060000000011
:100150000000005F00000007000700147F147F14F8
:10016000242A7F2A1223130864623649562050003D
:1001700008070300001C2241000041221C002A1C29
:100180007F1C2A08083E0808008070300008080814
:100190000808000060600020100804023E51494534
:1001A0003E00427F400072494949462141494D3352
:1001B0001814127F1027454545393C4A49493141B9
:1001C000211109073649494936464949291E000087
:1001D00014000000403400000008142241141414DC
:1001E0001414004122140802015909063E415D59C8
:1001F0004E7C1211127C7F494949363E41414122D1
:100200007F4141413E7F494949417F090909013EFA
:10021000414151737F0808087F00417F4100204021
:10022000413F017F081422417F404040407F021C33
:10023000027F7F0408107F3E4141413E7F0909094A
:10024000063E4151215E7F09192946264949493216
:1002500003017F01033F4040403F1F2040201F3FDC
:100260004038403F63140814630304780403615961
:10027000494D43007F4141410204081020004141A3
:10028000417F04020102044040404040000307084F
:100290000020545478407F2844443838444444284B
:1002A000384444287F385454541800087E090218F2
:1002B000A4A49C787F0804047800447D400020407A
:1002C000403D007F1028440000417F40007C0478BE
:1002D00004787C080404783844444438FC18242406
:1002E0001818242418FC7C08040408485454542486
:1002F00004043F44243C4040207C1C2040201C3C03
:100300004030403C44281028444C9090907C4464F9
:10031000544C44000836410000007700000041368C
:10032000080002010204023C2623263C1EA1A16112
:10033000123A4040207A3854545559215555794144
:100340002154547841215554784020545579400C1B
:100350001E527212395555555939545454593955FC
:100360005454580000457C410002457D420001453F
:100370007C40F0292429F0F0282528F07C545545AC
:10038000002054547C547C0A097F4932494949323F
:100390003248484832324A4848303A4141217A3A54
:1003A00042402078009DA0A07D39444444393D401E
:1003B00040403D3C24FF2424487E4943662B2FFCCB
:1003C0002F2BFF0929F620C0887E09032054547979
:1003D000410000447D413048484A32384040227A4A
:1003E000007A0A0A727D0D19317D2629292F2826C7
:1003F0002929292630484D402038080808080808CF
:100400000808382F10C8ACBA2F102834FA00007B27
:10041000000008142A142222142A1408950022002D
:1004200095AA005500AAAA55AA55AA000000FF00E7
:10043000101010FF00141414FF001010FF00FF1024
:1004400010F010F0141414FC001414F700FF000056
:10045000FF00FF1414F404FC141417101F10101FD5
:10046000101F1414141F00101010F0000000001FC3
:10047000101010101F10101010F010000000FF10CE
:100480001010101010101010FF10000000FF1400CA
:1004900000FF00FF00001F10170000FC04F41414FC
:1004A0001710171414F404F40000FF00F7141414C8
:1004B00014141414F700F7141414171410101F1048
:1004C0001F141414F4141010F010F000001F101F6B
:1004D0000000001F14000000FC140000F010F010D9
:1004E00010FF10FF141414FF141010101F00000050
:1004F00000F010FFFFFFFFFFF0F0F0F0F0FFFFFF54
:100500000000000000FFFF0F0F0F0F0F38444438AA
:10051000447C2A2A3E147E02020606027E027E02E5
:1005200063554941633844443C04407E201E200604
:10053000027E020299A5E7A5991C2A492A1C4C7241
:1005400001724C304A4D4D303048784830BC625AC8
:10055000463D3E494949007E0101017E2A2A2A2A58
:100560002A44445F444440514A444040444A514034
:100570000000FF0103E080FF000008086B6B0836F5
:1005800012362436060F090F060000181800000066
:100590001010003040FF0101001F01011E00191D55
:1005A0001712003C3C3C3C0000000000F0F89C8E20
:1005B0008783878E9CF8F00000FEFF03030303038C
:1005C000070EFCF80000FEFF0303030303070EFC05
:1005D000F80000FFFF00000000000000FFFF000027
:1005E000FEFF8383838383C7EE7C380000F8FC0E14
:1005F00007030303070EFCF800003F7FE0C0808084
:10060000C0E07F3FFFFF01010101010101FFFF0089
:1006100000FFFF0C0C0C0C1C3E77E3C100007FFFB9
:10062000C0C0C0C0C0E0703F1F00001F3F70E0C0EE
:10063000C0C0E0703F1F00007FFFC1C1C1C1C1E366
:10064000773E1C00001F3F70E0C0C0C0E0703F1F3D
:10065000000000000001FFFF01000000D5F08D1434
:10066000A1C881CFD9F1AF20000706050401000819
:100670000A0B0C0D09080B0002020200000904001D
:1006800000010202000005240010010524010101FF
:10069000042402060524060001070581031000401A
:1006A00009040100020A00000007050202400000E0
:1006B000070583024000000403090412010002EF51
:1006C00002014041233680000101020301417264AE
:1006D00075696E6F204C4C430041726475626F798E
:1006E00000001A0CB61011241FBECFEFDAE0DEBFF7
:1006F000CDBF11E0A0E0B1E0E0E3F8E202C0059078
:100700000D92AA3FB107D9F726E0AAEFB1E001C0E8
:100710001D92AF3BB207E1F713E0C2E7D3E004C09C
:100720002197FE010E941312C137D107C9F70E9419
:10073000540C0C940B140C94000080910302089547
:10074000EDE4F2E0A0E0B8E000800EBC8111012CE5
:100750001197A0FDFDCF0192B9F70DB40895FC01EA
:1007600080914702882311F13FB7F89482E080938B
:10077000E9002091F200822F90E01816190614F477
:1007800081E090E0882339F0289844E640934602BF
:100790004091F1004083222339F02091F200211191
:1007A00003C02BE62093E8003FBF08958FEF9FEF33
:1007B00008952FB7F89483E08093E9009091E800C2
:1007C000892F807295FF04C09091F20080E4891B0C
:1007D0002FBF089580913E0281110DC082E0809369
:1007E0003A0284E080933B0210923D0210923C0258
:1007F00081E080933E028AE392E00895CF93DF93F5
:100800001F92CDB7DEB76983DC01ED91FC910280C8
:10081000F381E02D41E050E0BE016F5F7F4F09950D
:100820000F90DF91CF91089583E08093E90080914C
:10083000F200882319F08AE38093E80008950E946B
:10084000D90390E00895CF93DF931F92CDB7DEB721
:10085000FC018485958597FD08C02FEF3FEF358714
:1008600024870F90DF91CF910895CE0101960E94C9
:10087000AF03019719F4898190E0F3CF8FEF9FEFD9
:10088000F0CF0F931F93CF93DF931F92CDB7DEB7B7
:100890008C01FC018485958597FF0BC0CE010196E4
:1008A0000E94AF03019771F4898190E0F801958768
:1008B0008487F801848595850F90DF91CF911F91F2
:1008C0000F9108958FEF9FEFF1CFFC0184859585FF
:1008D00097FD0BC09FB7F89482E08093E900809168
:1008E000F2009FBF90E0019608959FB7F89482E0D0
:1008F0008093E9008091F2009FBF90E008954091BD
:100900003402509135022091320230913302421765
:100910005307B4F49091E8009570E1F39091E800EA
:1009200092FD19C08093F1008091340290913502BC
:1009300001968F739927892B19F48EEF8093E80025
:100940008091340290913502019690933502809304
:10095000340281E0089580E00895DF92EF92FF92E3
:100960000F931F93CF93DF93D82E8A01EB017B0166
:10097000E40EF51ECE15DF0559F0D7FE12C0FE01BC
:1009800084910E947F0421968111F4CF0FEF1FEF15
:10099000C801DF91CF911F910F91FF90EF90DF90F1
:1009A00008958881EECF0F931F93CF93DF931F920B
:1009B000CDB7DEB782E0898342E450E065E776E0B8
:1009C00080E80E94AD040E94EA03DC0112960D91BA
:1009D0001C910115110589F0D801ED91FC9102805F
:1009E000F381E02DBE016F5F7F4FC801099597FD30
:1009F00004C0F80100851185ECCF89810F90DF914B
:100A0000CF911F910F910895615030F02091F10026
:100A1000FC0120830196F8CF289884E68093460253
:100A200008953FB7F89480912E0290912F02A091E3
:100A30003002B091310226B5A89B05C02F3F19F0B6
:100A40000196A11DB11D3FBFBA2FA92F982F88274E
:100A5000BC01CD01620F711D811D911D42E0660F29
:100A6000771F881F991F4A95D1F708958F929F92FB
:100A7000AF92BF92CF92DF92EF92FF926B017C0117
:100A80000E9411054B015C01C114D104E104F10481
:100A9000B9F00E941105681979098A099B09683E15
:100AA00073408105910580F321E0C21AD108E10865
:100AB000F10888EE880E83E0981EA11CB11CE4CFDB
:100AC000FF90EF90DF90CF90BF90AF909F908F906E
:100AD00008958F929F92AF92BF92CF92DF92EF9242
:100AE000FF920F931F93CF93DF936C017B018A01D9
:100AF00080911301882309F45CC080914702882308
:100B000009F457C08091390280FF05C08091E00050
:100B100082608093E000E801B12C8AEFA82E93E078
:100B2000892E2AE3922E209711F4BB20D9F10E943E
:100B3000D90381110AC0AA94AA20D9F161E070E01A
:100B400080E090E00E943605EECF8C171D0611F074
:100B50000CF08C2F9FB7F8948092E9002091E80068
:100B600025FD02C09FBFDFCF282F30E0C21BD30B73
:100B7000F701815020F041914093F100FACFE20E4D
:100B8000F31EBB2021F09092E800B12CEBCF8091B6
:100B9000E80085FDE7CF9092E800BB24B39420974E
:100BA00009F3F3CF5D9884E680933802101611069E
:100BB0003CF081E090E0F6019383828310E000E056
:100BC000C801DF91CF911F910F91FF90EF90DF90BF
:100BD000CF90BF90AF909F908F900895AF92BF92AB
:100BE000CF92DF92EF92FF920F931F93CF93DF93F9
:100BF0006C017B018B01040F151FEB015E01AE1828
:100C0000BF08C017D10759F06991D601ED91FC9149
:100C10000190F081E02DC6010995892B79F7C50176
:100C2000DF91CF911F910F91FF90EF90DF90CF90C8
:100C3000BF90AF90089520914C02E0914A02F0914C
:100C40004B02CF01029690934B0280934A022223DB
:100C500019F0859194910895808191810895CF92A2
:100C6000DF92EF92FF92CF93DF930E941B068115D4
:100C700020E8920791F4809171008D7F809371003C
:100C800010929100469847981092FC01DF91CF9105
:100C9000FF90EF90DF90CF90089521E02093FC012A
:100CA000813020E8920751F48091480290914902E6
:100CB00090934B0280934A020E941B0697FD05C049
:100CC0002091FB01222309F454C02091FA01211143
:100CD00050C021E02093FD01EC01DF77209709F05F
:100CE0004BC081E08093FE0146983FE9C32E3FE070
:100CF000D32EE12CF12CCAEFD0E0E091AF06F091B9
:100D0000B0060995811103C081E08093FE018091B6
:100D1000FD01882329F08091FE01882309F43FC05A
:100D200047980E941B060097F1F19C01DE010E948A
:100D30000412DC01CB0129E0B595A795979587951D
:100D40002A95D1F7109290002AE020939100D0923A
:100D50009900C09298008093FF0190930002A093A5
:100D60000102B09302028091710082608093710051
:100D70008DCF1092FD01B0CF9E0150E040E060E4C5
:100D800072E48FE090E00E94791169017A0181E0BC
:100D9000C81AD108E108F1081092FE01AECF4699B9
:100DA000BFCF479ABECF8FEF9FEFDC01CBCFE1E7FC
:100DB000F0E080818D7F808310924C02E1EAF6E0C2
:100DC000F0934B02E0934A02F0934902E093480209
:100DD00088EE93E09183808382E390E09383828323
:100DE00080E090E8958384830C942F062D9A0895D3
:100DF000BC0190E080E00C9436058FB18095807F37
:100E0000669B88601C9B84600895AF92BF92CF92CE
:100E1000DF92EF92FF920F931F93CF93DF936D308A
:100E200079F0C0914D06D0914E066A30B1F410921F
:100E3000500610924F062896D0934E06C0934D064A
:100E400081E090E0DF91CF911F910F91FF90EF90A3
:100E5000DF90CF90BF90AF90089540914F06509192
:100E6000500685E0689FF0011124E455FF4F9A0178
:100E7000C12C80E1E82EA5E070E0CA1621F0CF0178
:100E800001967491FC0110E000E0B72FB170DB2EE9
:100E900020383105D0F4CE01800F911F80349105A8
:100EA000A0F461E081FD64E080FD660F82FD629543
:100EB000887FE89ED0011124A20FF62EA35BBD4FC0
:100EC0008C91DD20A9F0862B8C9376950F5F1F4FB8
:100ED00008301105D1F6C3942F5F3F4F86E0C8124A
:100EE000CACF4A5F5F4F5093500640934F06A8CF3A
:100EF000F0948F21E9CF90910402982329F49091E6
:100F00000502982381E009F480E00895CF93C82F6B
:100F10000E94FD06982F9C2381E09C1380E0CF91D6
:100F2000089580E00C94A003089590E080E0089577
:100F30008F929F92AF92BF920F931F93CF93DF93A5
:100F4000CDB7DEB7A1970FB6F894DEBF0FBECDBF09
:100F500019A2423008F44AE08E010F5D1F4F842E23
:100F6000912CB12CA12CA50194010E94E211E62F35
:100F7000B901CA01EA3044F5E05DD801EE938D0174
:100F8000232B242B252B79F790E080E0109769F034
:100F9000FD0101900020E9F73197AF014A1B5B0B7F
:100FA000BD0187EB96E00E94EE05A1960FB6F8947E
:100FB000DEBF0FBECDBFDF91CF911F910F91BF90CC
:100FC000AF909F908F900895E95CD7CFCF92DF923A
:100FD000EF92FF92CF93DF936B017C016DE287EB81
:100FE00096E00E940507EC0166277727CB016C1974
:100FF0007D098E099F094AE00E9498078C0F9D1F6A
:10100000DF91CF91FF90EF90DF90CF900895BC01DA
:10101000990F880B990B97FD0C94E6074AE00C9406
:1010200098071092500610924F0690934E068093A8
:101030004D066115710561F0FB0101900020E9F793
:101040003197AF01461B570B87EB96E00C94EE05EA
:1010500008950F931F93CF93DF938C01EB01809141
:10106000B1069091B206009739F02091B306309105
:10107000B40626173707B8F4BE016F5F7F4F0E9492
:101080003E130097E1F09093B2068093B106D0939F
:10109000B406C093B3062091B5063091B606232B53
:1010A00011F4FC011082D093B606C093B506B801C6
:1010B0008091B1069091B2060E94041414C08091F0
:1010C000B1069091B206009711F00E94B5121092ED
:1010D000B2061092B1061092B6061092B5061092A2
:1010E000B4061092B30681EB96E0DF91CF911F9189
:1010F0000F9108950C9463118AE090E0909307019A
:10110000809306010E940B1129EE33E040E050E08D
:101110000E947911709307026093060281E090E0CB
:1011200090932802809327021092260210921D02AB
:1011300010921C0208951F920F920FB60F92112465
:101140008F939F938091E1009091E100937F909322
:10115000E10083FF0FC01092E90091E09093EB0053
:101160001092EC0092E39093ED001092470298E009
:101170009093F00082FF22C093E09093E900909159
:10118000F200992319F09AE39093E80090913802C5
:10119000992341F090913802915090933802911127
:1011A00001C05D9A90914602992341F090914602C8
:1011B000915090934602911101C0289A84FF18C063
:1011C0008091E2008E7E81608093E2008091E10058
:1011D0008F7E8093E100809139028E7E80618093C2
:1011E00039029F918F910F900FBE0F901F9018950D
:1011F00080FFF7CF8091E2008E7E80618093E200D5
:101200008091E1008E7E8093E100809139028E7E94
:101210008160E5CF1F920F920FB60F921124CF92EB
:10122000DF92EF92FF920F931F932F933F934F9371
:101230005F936F937F938F939F93AF93BF93EF933E
:10124000FF93CF93DF93CDB7DEB76C97DEBFCDBFF3
:101250001092E9008091E80083FF25C068E0CE018C
:1012600045960E94040582EF8093E8008D8987FFF0
:1012700039C09091E80090FFFCCF982F907609F04C
:1012800034C19E894F89588D2F89F88C911131C0B6
:10129000803861F5809137028093F1001092F1005F
:1012A0008EEF8093E8006C960FB6F894DEBF0FBE09
:1012B000CDBFDF91CF91FF91EF91BF91AF919F9102
:1012C0008F917F916F915F914F913F912F911F91DE
:1012D0000F91FF90EF90DF90CF900F900FBE0F9087
:1012E0001F9018959EEF9093E800C7CF1092F100E1
:1012F000D5CF913059F48111D3CF4130510581F6CA
:10130000809137028D7F80933702CACF933049F4A2
:101310008111C6CF4130510519F6809137028260A4
:10132000F2CF953041F48091E80080FFFCCF206837
:101330002093E300B5CF963009F0A9C00B8D1C8D2A
:1013400022E01092E9001092350210923402F2125B
:101350002EC010923302109232020E94D3041F82D8
:1013600099E09983FA8291E09E8390EA98879AEFB8
:1013700099872091340230913502275F3F4F3C839B
:101380002B838D831092E900109235021092340263
:10139000109333020093320249E050E0BE016F5FC8
:1013A0007F4F80E00E94AD040E94D30479CF109358
:1013B0003302009332020E94EA03DC0112960D917F
:1013C0001C910115110509F451C1D801ED91FC9151
:1013D0000480F581E02DBE016B5E7F4FC801099549
:1013E000009709F03EC1F80100851185EACFF3E0CE
:1013F000FF120EC08F89882309F440C0823061F447
:1014000040E867E089ED96E00E94E70B811148CF44
:1014100081E28093EB0047CF813029F440E86BE014
:101420008DEC96E0F1CF833099F70E94EA03DC015E
:101430001296ED90FC908E010F5F1F4F6801E11432
:10144000F10479F0D701ED91FC910680F781E02D50
:10145000B801C7010995080F111DF701E084F18457
:10146000EECFD8011C92F60101900020E9F73197E8
:10147000BF016C197D0940E0C601C6CF67EB76E07D
:10148000FB01449150E080E80E94AD0409CF973001
:1014900009F4BECF983021F481E08093F10000CFB1
:1014A000993009F0FDCE837009F0B2CFEFE1F1E0A1
:1014B00081E031E096E32191222371F08093E900ED
:1014C0003093EB00DF0111972C912093EC00909367
:1014D000ED008F5F873079F78EE78093EA001092F6
:1014E000EA008F8980934702DBCE8B8D9C8D109212
:1014F000E9001092350210923402909333028093E7
:101500003202898D811192C08E899D89913A49F468
:10151000813209F07DCF47E050E06CE071E080E07F
:10152000B3CF913209F074CF833269F48F89988DEB
:10153000B0E0A0E08093080190930901A0930A0114
:10154000B0930B01ADCE803269F48091E80082FF48
:10155000FCCF67E08CE091E00E9404058BEF809364
:10156000E8009ECE823209F09BCE8F8980931301D2
:10157000EEEFFFE7859194918B3F9C4D51F1E0E0B8
:10158000F8E080910C0190910D01A0910E01B091B5
:101590000F01803B9440A105B105F1F48091130146
:1015A00080FD1AC0EE3F8AE0F80789F587E797E7E4
:1015B00091838083809160008093360288E19BE074
:1015C0000FB6F894A895809360000FBE90936000CA
:1015D00067CEEEEFFAE0D5CF8081918187379747CC
:1015E00009F05ECEA89580916000886180936000CC
:1015F0008091360280936000EE3F2AE0F20789F086
:101600008091FE0A9091FF0A9183808349CE808168
:1016100091818737980751F29093FF0A8093FE0AD1
:10162000C5CF1092FF0A1092FE0A3ACE0E94EA033A
:10163000DC0112960D911C910115110509F4E8CEFB
:10164000D801ED91FC910190F081E02DBE016B5E1F
:101650007F4FC8010995811123CEF80100851185BE
:10166000EBCF181619060CF41BCED2CEF1E0FF1208
:10167000BECE6BEB76E004CF1F920F920FB60F92A7
:1016800011242F933F938F939F93AF93BF93809198
:101690002A0290912B02A0912C02B0912D02309140
:1016A000290223E0230F2D3758F50196A11DB11D06
:1016B0002093290280932A0290932B02A0932C025C
:1016C000B0932D0280912E0290912F02A0913002B2
:1016D000B09131020196A11DB11D80932E0290930D
:1016E0002F02A0933002B0933102BF91AF919F912E
:1016F0008F913F912F910F900FBE0F901F901895D3
:1017000026E8230F0296A11DB11DD2CF1F920F9282
:101710000FB60F9211242F933F934F935F936F93C4
:101720007F938F939F93AF93BF93EF93FF9380919A
:10173000FF0190910002A0910102B0910202892B59
:101740008A2B8B2B09F440C08091FE0181110BC0C4
:1017500088B190E4892788B98091FD01882319F028
:1017600088B1805888B98091FF0190910002A091C2
:101770000102B0910202181619061A061B069CF403
:101780008091FF0190910002A0910102B0910202AC
:101790000197A109B1098093FF0190930002A093E2
:1017A0000102B0930202FF91EF91BF91AF919F911F
:1017B0008F917F916F915F914F913F912F910F90FA
:1017C0000FBE0F901F9018950E942F06ECCFEF923E
:1017D000FF920F931F93CF93DF93F82E192FE62ECE
:1017E000042F81E0860F880F0E947F0483E00E940F
:1017F0007F04CF2DD12FEC0EFD2EF11CCE15DF0571
:10180000B9F007FF13C0FE0184910E947F04182FD6
:1018100080E00E947F04812321968111EFCFDF9128
:10182000CF911F910F91FF90EF9008958881EDCF98
:1018300081E0F5CFE1E5F6E01382128288EE93E0D5
:10184000A0E0B0E084839583A683B78389E291E02A
:10185000918380838FEF9FEF95878487E7EBF6E096
:10186000138212828BE391E0918380838DE993E070
:101870009093B0068093AF0680E090E89093AE0618
:101880008093AD0646983E9A47983F9AE1EBF6E082
:1018900011821082138212821582148270E060E03D
:1018A0008AEB91E00C942908789484B5826084BD19
:1018B00084B5816084BD85B5826085BD85B5816054
:1018C00085BD80916E00816080936E0010928100D2
:1018D000809181008260809381008091810081608D
:1018E000809381008091800081608093800080914E
:1018F000910082608093910080919100816080933B
:101900009100809190008160809390008091C1004F
:1019100084608093C1008091C10082608093C10087
:101920008091C10081608093C1008091C30081607B
:101930008093C3008091C00082608093C00080913A
:10194000C20081608093C20080917A00846080939D
:101950007A0080917A00826080937A0080917A0088
:10196000816080937A0080917A00806880937A0009
:101970001092470210923702109239028091D700DC
:1019800081608093D70080EA8093D80089B5806118
:1019900089BD89B5826089BD09B400FEFDCF61E0D3
:1019A00070E080E090E00E9436058091D8008F7C46
:1019B00080618093D8008091E000807F8093E00078
:1019C0008091E1008E7E8093E1008DE08093E200C3
:1019D000559A209A81EC80937C0085B1806F85B9FF
:1019E00084B1877E84B984B1876E84B95E9A5F982A
:1019F0008AB1806D8AB9769A6E9881B3806F81BB07
:101A0000899880B38D7080BB80E58CBD81E08DBDF1
:101A100085E090E00E94F8065F9A85E090E00E94E1
:101A2000F8065E985C98ECE5F6E084918EBD0000C7
:101A30000DB407FEFDCF319626E0E936F207A9F78F
:101A40005C9A81E880936400809165008160809356
:101A500065000E94910780E80E9486078823A9F00C
:101A60005C9885EA8EBD00000DB407FEFDCF5C9A40
:101A70002E982F982D988091640080628093640046
:101A800081E083BF889513BEFCCF84E00E94860767
:101A9000882309F448C02D9884E80E94860788238B
:101AA000E1F00E94F60688EC90E00E94F8062F987C
:101AB00082E090E00E9463118F3F29F06FEF82E097
:101AC00090E00E946B1184EF91E00E94F8062F9A3B
:101AD00084E80E9486078111FBCF84E10E9486077B
:101AE0008823E1F00E94F60688EC90E00E94F80658
:101AF0002E9882E090E00E946311882329F060E034
:101B000082E090E00E946B1184EF91E00E94F80661
:101B10002E9A84E10E9486078111FBCF88EC90E029
:101B20000E94F806B2CF0E94F60682E090E00E9482
:101B30007A08882309F4A3C03E9A3F9A81E08093F3
:101B4000030281E090E00E947A08482F4470742ECE
:101B500081FF12C041112E98C1EFDFEF08E010E0C5
:101B600058E5652E80E40E948607882309F48CC01E
:101B70002E9A2F9A0E94F60682E390E00E94F806C1
:101B80000E94FD068111F8CFE9E6F6E0E49190911C
:101B90007B008E2F880F880F80729F7D892B80930A
:101BA0007B00E770E064E0937C0080917A008064C1
:101BB00080937A0080917A0086FDFCCFC0917800F6
:101BC000D09179000E9411059B01AC01DE010E94B9
:101BD000A311611571058105910511F00E945A113B
:101BE0001092280210922702E2E08E2E912CFEE63F
:101BF000AF2EB12C6DE4262E62E0362E7CE2C72E8D
:101C0000DD24D39480E0F10181118FEF00248193D2
:101C10008193819381930394D1F710924E06109291
:101C20004D061092500610924F0680910502809347
:101C300004020E94FD06809305028FB7F89440903D
:101C40002A0250902B0260902C0270902D028FBFC0
:101C500080912702909128028130910509F4FEC0FD
:101C600008F4D5C0029709F475C20E94910780E07C
:101C700090E0892B09F4C6CF0E940000BBCF1092E0
:101C800003023E983F985DCF772029F0C430D105FC
:101C900011F42E9A2F9881E00E94A0039E01D7FF95
:101CA00004C0222733272C1B3D0B27703327CE017E
:101CB000D7FD079643E0959587954A95E1F7D7FFBD
:101CC00005C00197F801E21BF30B9F01BC0176955B
:101CD000762F662777956795F12CE12C2801421A1B
:101CE000530A8E3FFFEF9F0709F441C06E9C5001DD
:101CF0006F9CB00C1124DB01A35BBD4F50E040E0B2
:101D0000F501E455FA4F5F01FB01E353FD4F4F012D
:101D10008F3F980781F0F501E40FF51FE491022E43
:101D200001C0EE0F0A94EAF75496FC915497EF2BFA
:101D30005496EC9354972115310599F0F501E40F71
:101D4000F51FE4916401C40ED51EF0E01F01042CC0
:101D500002C0359427940A94E2F7F60134882328C8
:101D6000248A4F5F5F4F11964835510589F60196D9
:101D700060587F4FEA94EF2809F045C00E94910710
:101D80008FE090E00E94F8062196C931D10509F054
:101D9000E9CE772011F02F9A2D9880E991E00E94EA
:101DA000F8060E94F60681E090E00E947A0880FF23
:101DB000E3CE8AE090E00E947A089FEF980F9E3F62
:101DC00008F0DACE22E330E03093500620934F063D
:101DD00028E330E030934E0620934D06CBE0D0E070
:101DE000682F87EB96E00E940507CE010E947A08D3
:101DF0002196C131D105A1F70E94910788EE93E0A9
:101E00000E94F806B9CEEE24E394F12C6ACF67E580
:101E100071E090E080E00E94110868E671E08AE0DD
:101E200090E00E94110869E771E084E190E00E946F
:101E300011086AE871E08EE190E00E94110865E9FE
:101E400071E088E290E00E94110888E00E947B0720
:101E5000882309F40ACF0E947C0807CF61EA71E069
:101E600090E080E00E9411088091060190910701A6
:101E70000E9407086EEA71E08AE090E00E94110873
:101E800080910401909105010E940708C0911C02F5
:101E9000D0911D02C330D10514F4C3E0D0E07E011F
:101EA00023E0E21AF108CC0FDD1FCE5FDD4F10E01A
:101EB00000E080911C0290911D02E816F906E4F4FE
:101EC000B0925006A0924F0610934E0600934D0616
:101ED00069917991072E000C880B990B97FF08C028
:101EE0000E94E6074FEFE41AF40A065F1F4FE1CFA6
:101EF0004AE00E949807F6CF80912602811119C10D
:101F000080E20E948607882309F44EC0C091020136
:101F1000D09103018091220290912302A09124028A
:101F2000B0912502B301A201481B590B6A0B7B0B30
:101F3000CE010D2E000CAA0BBB0B84179507A6072C
:101F4000B707D8F580E40E94860721E030E08111D0
:101F500002C02FEF3FEF8091040190910501820FA5
:101F6000931F893E53E0950714F088EE93E097FFA6
:101F700002C090E080E090930501809304014092BC
:101F80002202509223026092240270922502CC33E6
:101F9000D10514F4CCE3D0E02A97D0930301C09389
:101FA00002010E94D70609C080E40E9486078111C1
:101FB000ADCFD0920301C092020180E80E94860753
:101FC000811158C080E10E948607811153C0D092D0
:101FD0000101C092000188E00E947B078823B9F1CB
:101FE00080911C0290911D02209104013091050105
:101FF0008A30910574F4AC014F5F5F4F50931D021E
:1020000040931C02880F991FFC01E85FFD4F31834C
:102010002083809106019091070101979093070119
:102020008093060180910602909107028217930720
:1020300009F06FC06FE070E08BEB91E00E9429081F
:10204000909228028092270281E08093260280915C
:10205000060190910701892B09F007CE8091260295
:102060006BEC71E0811101CE82E390E00E941108D7
:1020700084E0ECCEC0910001D091010180911E025C
:1020800090911F02A0912002B0912102B301A20100
:10209000481B590B6A0B7B0BCE010D2E000CAA0BB3
:1020A000BB0B84179507A607B70708F094CF80E805
:1020B0000E9486072AE030E0811102C026EF3FEF40
:1020C0008091040190910501820F931F893EE3E006
:1020D0009E0714F088EE93E097FF02C090E080E046
:1020E000909305018093040140921E0250921F02BA
:1020F0006092200270922102CC33D10514F4CCE31B
:10210000D0E02A97D0930101C09300010E94D70626
:1021100062CF281739073CF183E491E0FC0101907C
:102120000020E9F73197BF01681B790B0E9429084D
:102130008BCF6091B1067091B20688E290E00E9468
:10214000110888E00E947B07882309F480CF109251
:1021500026027DCF6EED71E089E190E00E941108CA
:1021600066EE71E081CF8CE491E0D8CF8091B1062A
:102170009091B206009711F00C94B51208958F92C9
:102180009F92AF92BF92CF92DF92EF92FF92CF9346
:10219000DF93EC01688179818A819B8161157105EA
:1021A0008105910521F464E279ED8BE597E02DE15D
:1021B00033EF41E050E00E94791149015A019B013F
:1021C000AC01A7EAB1E40E9498116B017C01ACEE6E
:1021D000B4EFA50194010E94A611C60ED71EE81EF9
:1021E000F91EF7FE06C081E0C81AD108E10880E8B0
:1021F000F80AC882D982EA82FB82C701B6019F77BA
:10220000DF91CF91FF90EF90DF90CF90BF90AF9094
:102210009F908F9008958F929F92AF92BF92CF928E
:10222000DF92EF92FF9260911401709115018091FD
:10223000160190911701611571058105910521F431
:1022400064E279ED8BE597E02DE133EF41E050E07A
:102250000E94791149015A019B01AC01A7EAB1E43E
:102260000E9498116B017C01ACEEB4EFA5019401C2
:102270000E94A611C60ED71EE81EF91EF7FE06C064
:1022800081E0C81AD108E10880E8F80AC092140178
:10229000D0921501E0921601F0921701C701B60124
:1022A0009F77FF90EF90DF90CF90BF90AF909F907F
:1022B0008F90089560931401709315018093160117
:1022C000909317010895F999FECF92BD81BDF89AB8
:1022D000992780B50895262FF999FECF1FBA92BD90
:1022E00081BD20BD0FB6F894FA9AF99A0FBE0196F7
:1022F0000895052E97FB1EF400940E94901157FD3F
:1023000007D00E94E21107FC03D04EF40C94901108
:1023100050954095309521953F4F4F4F5F4F089511
:1023200090958095709561957F4F8F4F9F4F089541
:102330000E940412A59F900DB49F900DA49F800D44
:10234000911D11240895B7FF0C9498110E949811C3
:10235000821B930B08952F923F924F925F926F9240
:102360007F928F929F92AF92BF92CF92DF92EF9225
:10237000FF920F931F93CF93DF93CDB7DEB7CA1BA6
:10238000DB0B0FB6F894DEBF0FBECDBF09942A88D1
:10239000398848885F846E847D848C849B84AA8479
:1023A000B984C884DF80EE80FD800C811B81AA8106
:1023B000B981CE0FD11D0FB6F894DEBF0FBECDBFD1
:1023C000ED010895A1E21A2EAA1BBB1BFD010DC051
:1023D000AA1FBB1FEE1FFF1FA217B307E407F507D5
:1023E00020F0A21BB30BE40BF50B661F771F881FB1
:1023F000991F1A9469F760957095809590959B0147
:10240000AC01BD01CF010895A29FB001B39FC001EF
:10241000A39F700D811D1124911DB29F700D811D10
:102420001124911D0895EE0FFF1F0590F491E02DEA
:1024300009940F931F93CF93DF938230910510F48B
:1024400082E090E0E091BD06F091BE0630E020E031
:10245000B0E0A0E0309799F42115310509F44AC0A5
:10246000281B390B24303105D8F58A819B816115F1
:10247000710589F1FB0193838283FE0111C04081C4
:1024800051810281138148175907E0F04817590715
:1024900099F4109761F012960C93129713961C936F
:1024A0003296CF01DF91CF911F910F910895009344
:1024B000BD061093BE06F4CF2115310551F0421729
:1024C000530738F0A901DB019A01BD01DF01F801D2
:1024D000C1CFEF01F9CF9093BE068093BD06CDCF5B
:1024E000FE01E20FF31F819391932250310939834A
:1024F0002883D7CF2091BB063091BC06232B41F413
:1025000020911A0130911B013093BC062093BB0629
:1025100020911801309119012115310541F42DB791
:102520003EB740911C0150911D01241B350BE091D9
:10253000BB06F091BC06E217F307A0F42E1B3F0B7D
:102540002817390778F0AC014E5F5F4F2417350725
:1025500048F04E0F5F1F5093BC064093BB0681931B
:1025600091939FCFF0E0E0E09CCFCF93DF93009773
:10257000E9F0FC01329713821282A091BD06B0915E
:10258000BE06ED0130E020E01097A1F420813181FA
:10259000820F931F2091BB063091BC062817390784
:1025A00009F061C0F093BC06E093BB06DF91CF91C8
:1025B0000895EA01CE17DF07E8F54A815B819E01A5
:1025C00041155105B1F7E901FB83EA83499159911E
:1025D000C40FD51FEC17FD0761F48081918102962D
:1025E000840F951FE90199838883828193819B835E
:1025F0008A83F0E0E0E012968D919C91139700970A
:10260000B9F52D913C911197CD010296820F931F40
:102610002091BB063091BC062817390739F6309750
:1026200051F51092BE061092BD06B093BC06A09361
:10263000BB06BCCFD383C28340815181840F951FD9
:10264000C817D90761F44E5F5F4F88819981480FA1
:10265000591F518340838A819B81938382832115F3
:10266000310509F0B0CFF093BE06E093BD069ECFD2
:10267000FD01DC01C0CF13821282D7CFB0E0A0E011
:10268000E4E4F3E10C94AD118C01009751F4CB011B
:102690000E9419128C01C801CDB7DEB7E0E10C949D
:1026A000C911FC01E60FF71F9C0122503109E21706
:1026B000F30708F49DC0D901CD91DC911197C6179D
:1026C000D70798F0C530D10530F3CE0104978617AF
:1026D000970708F3C61BD70B2297C193D1936D932D
:1026E0007C93CF010E94B512D6CF5B01AC1ABD0A14
:1026F0004C018C0E9D1EA091BD06B091BE06512CC2
:10270000412CF12CE12C109731F58091BB06909172
:10271000BC068815990509F05CC04616570608F0F6
:1027200058C08091180190911901009741F48DB71C
:102730009EB740911C0150911D01841B950BE81719
:10274000F90708F055C0F093BC06E093BB06F90109
:1027500071836083A0CF8D919C91119712966C909C
:10276000129713967C901397A815B90559F56C012B
:1027700042E0C40ED11CCA14DB0420F1AC014A199A
:102780005B09DA011296159780F062827382518399
:102790004083D9016D937C93E114F10471F0D7016A
:1027A0001396FC93EE93129776CF22968C0F9D1F73
:1027B000F90191838083F301EFCFF093BE06E0939C
:1027C000BD0669CF4816590608F42C017D01D301D6
:1027D0009ACFCB010E9419127C01009749F0AE01FB
:1027E000B8010E94FB13C8010E94B512870153CFA4
:1027F00010E000E050CFFB01DC0102C001900D921F
:1028000041505040D8F70895FB01DC0101900D9232
:102810000020E1F7089513E0C2E7D3E004C0FE0111
:102820000E9413122196C337D107C9F7F894FFCF3E
:102830002C012C01F5010A00FFFFFFFF00E1000061
:1028400000000000010000000000BF06800000C181
:10285000808100000000000000FE0369051F0414D1
:1028600004650423044104000000000507EE0595FB
:10287000079407546F6F206269672100546F6F20BF
:10288000736D616C6C2100477565737320746865A6
:10289000204E756D62657200507265737320412021
:1028A000746F207374617274004E756D626572206E
:1028B000697320302D31303030004C2F523A202BAC
:1028C0002F2D203100552F443A202B2F2D20313031
:1028D000005472696573206C6566743A2000596F04
:1028E00075722067756573733A2000596F7520679C
:1028F000756573736564206974210047616D652097
:102900004F766572212050726573732042005769BB
:102910006E6E657221005072657373204220746F71
:0A29200020636F6E74696E75650028
:00000001FF
